S00D00006877385F352E737265636C
S11300000C9434000C9446000C9485000C94460027
S11300100C9446000C9446000C9446000C94460044
S11300200C9446000C9446000C9446000C94460034
S11300300C9446000C9446000C9446000C94460024
S11300400C9446000C9446000C9446000C94460014
S11300500C9446000C9446000C9446000C94460004
S11300600C9446000C94460011241FBECFEFD8E038
S1130070DEBFCDBF21E0A0E0B1E001C01D92A230FF
S1130080B207E1F70E945A010C946B010C94000032
S11300905D9808955C9808955D9A08955C9A089512
S11300A00E9448002FEF89E698E12150804090405B
S11300B0E1F700C000000E944C002FEF89E698E1B0
S11300C0215080409040E1F700C0000008950E9454
S11300D04A002FEF89E698E1215080409040E1F7F3
S11300E000C000000E944E002FEF89E698E12150E5
S11300F080409040E1F700C0000008958FE084B98B
S113010087EF8AB988EF87B908951F920F920FB6C7
S11301100F921124FF920F931F932F933F934F93AA
S11301205F936F937F938F939F93AF93BF93CF937B
S1130130DF93EF93FF938FEF8093000181E080932F
S113014001014EEF0AE01BE03DEFD8E0C7E0B9E063
S11301502BEFA5E0F4E0E6E00F2EF7EFFF2EF02DF5
S113016072E061E053E0809101018130C9F4F5B897
S11301708FE39CE90197F1F700C0000086B1877016
S1130180853041F0863049F0833009F056C05093F1
S1130190000153C07093000150C0609300014DC032
S11301A08230C1F425B98FE39CE90197F1F700C0CF
S11301B0000086B18770853039F0863041F0833095
S11301C0E1F5E093000139C0A093000136C0F0933B
S11301D0000133C08330C1F435B98FE39CE9019742
S11301E0F1F700C0000086B18770853039F08630A1
S11301F041F0833011F5B09300011FC0D09300018A
S11302001CC0C093000119C08430B9F445B98FE310
S11302109CE90197F1F700C0000086B18770853032
S113022039F0863041F0833041F41093000105C069
S11302301092000102C000930001809101018F5FC0
S11302408093010185300CF48ECF809100018111DF
S11302500BC00E9450000E9450000E9450000E9457
S113026050000E9450000FC018166CF4C0E0D0E09B
S11302700E946700219680910001082E000C990BC2
S1130280C817D907ACF315B8FF91EF91DF91CF915F
S1130290BF91AF919F918F917F916F915F914F919A
S11302A03F912F911F910F91FF900F900FBE0F90D0
S11302B01F9018950E947E0082E08DBB84E080939D
S11302C06900789487E088B915B85B9A0E944E005B
S10D02D00E944C00FFCFF894FFCF0A
S9030000FC
