:100000000C9434000C9449000C9449000C94490061
:100010000C9449000C9449000C9449000C9449003C
:100020000C9449000C9449000C9449000C9449002C
:100030000C9449000C9449000C9449000C9449001C
:100040000C9449000C9449000C9449000C9449000C
:100050000C9449000C9449000C9449000C944900FC
:100060000C9449000C94490011241FBECFEFD8E036
:10007000DEBFCDBF11E0A0E0B1E0EAEBF2E002C0EC
:1000800005900D92A031B107D9F70E9495000C940C
:100090005B010C940000E82FF0E0E050FF4F8081FE
:1000A00088B986FF02C0589A0895589808959BB160
:1000B0009170813021F048F0823019F004C080E462
:1000C00005C080E203C080E101C080E8992319F0F7
:1000D000982B9BB908958BB9089589B18695837043
:1000E0008330D1F08FE19EE40197F1F700C000006A
:1000F00089B186958370833089F0813021F0823018
:1001000021F481E003C080E001C082E099B19695BE
:1001100093709330D9F7089582E0089582E00895AE
:100120008FE387B989EF8AB908950E9490008FE024
:1001300097E20197F1F700C00000C0E00AE010E08C
:10014000E12CF12C0F2EFAE0CF2ED12CF02D68945B
:10015000552451F8662463940F2EF4E68F2E912CCB
:10016000F02D0F2EF3E07F2EF02D0F2EF8EEAF2E98
:10017000F3E0BF2EF02DD0E027C08FE097E201978B
:10018000F1F700C00000065F1F4F08321105E1F4CF
:100190000E946D0081110CC09FEFE91AF90A8BE0F3
:1001A000E816F10464F000E010E0E12CF12C0CC042
:1001B000813041F400E010E0E12CF12C05C000E0BA
:1001C00010E002C000E010E08C2F0E945700C13008
:1001D000A1F028F0C23019F1C33099F1CECFC70198
:1001E000B6010E9433010E944B008FE19EE401970B
:1001F000F1F700C00000C62DC0CFC701B6010E94B4
:100200003301CB01B6010E9433010E944B008FE104
:100210009EE40197F1F700C00000C52DAECFC701E5
:10022000B4010E943301CB01B6010E9433010E9448
:100230004B008FE19EE40197F1F700C00000C72D4D
:100240009CCFC701B5010E943301CB01B6010E94CA
:1002500033010E944B008FE19EE40197F1F700C04B
:100260000000CD2F8ACF97FB072E16F4009407D0FD
:1002700077FD09D00E94470107FC05D03EF4909518
:1002800081959F4F0895709561957F4F0895AA1BA2
:10029000BB1B51E107C0AA1FBB1FA617B70710F071
:1002A000A61BB70B881F991F5A95A9F780959095A3
:0A02B000BC01CD010895F894FFCFC2
:1002BA003F065B4F666D7D077F6F777C395E79718C
:00000001FF
