S00E00006877375F31302E7372656340
S11300000C9434000C9451000C9451000C94510045
S11300100C9451000C9451000C9451000C94510018
S11300200C9451000C9451000C9451000C94510008
S11300300C9451000C9451000C9451000C945100F8
S11300400C9451000C9451000C9451000C945100E8
S11300500C9451000C9451000C9451000C945100D8
S11300600C9451000C94510011241FBECFEFD8E022
S1130070DEBFCDBF11E0A0E0B1E0ECEAF2E002C0E7
S113008005900D92AA30B107D9F721E0AAE0B1E0BA
S113009001C01D92AD30B207E1F70E9431010C940A
S11300A054010C94000081EF8AB98FEF87B9089549
S11300B080910B0190910C018F3027E2920728F078
S11300C010920C0110920B010895019690930C016B
S11300D080930B01089580910A01813041F138F039
S11300E0823009F44BC0833009F478C0ACC0E0918D
S11300F00B0130910C012E2FADECBCEC0E9445019C
S11301009695879596958795969587959C01220F48
S1130110331F880F991F880F991F880F991F820F0B
S1130120931FE81B8E2F91E090930A018FC040919A
S11301300B0150910C019A01369527953695279518
S1130140ABE7B4E10E9445019695879564E6689F04
S11301509001699F300D1124CA01821B930B9C01ED
S1130160ADECBCEC0E9445019695879596958795D4
S11301709695879592E090930A0168C040910B018F
S113018050910C019A013695279536952795369509
S11301902795A5ECB0E20E944501929582958F7057
S11301A089279F70892768EE73E0869F9001879F57
S11301B0300D969F300D1124CA01821B930B9C01B4
S11301C03695279536952795ABE7B4E10E9445010E
S11301D09695879593E090930A0138C040910B015E
S11301E050910C019A01329522952F7023273F706C
S11301F02327A7E4B3E00E94450196958795969539
S113020087959695879560E177E2869F9001879F11
S1130210300D969F300D1124CA01821B930B9C0153
S1130220369527953695279536952795A5ECB0E212
S11302300E944501929582958F7089279F70892726
S113024010920A0103C010920A0180E0E82FF0E046
S1130250E050FF4F808188B986FB882780F98BB9ED
S113026008950E945300C4E689B189B10E946B00CD
S11302708FE19EE40197F1F700C00000C150A1F79F
S11302800E9458000E946B00EECFA29FB001B39F62
S1130290C001A39F700D811D1124911DB29F700D8B
S10F02A0811D1124911D0895F894FFCFD6
S10D02AC3F065B4F666D7D077F6718
S9030000FC
