S00D00006877375F382E737265636A
S11300000C9434000C9451000C9451000C94510045
S11300100C9451000C9451000C9451000C94510018
S11300200C9451000C9451000C9451000C94510008
S11300300C9451000C9451000C9451000C945100F8
S11300400C9451000C9451000C9451000C945100E8
S11300500C9451000C9451000C9451000C945100D8
S11300600C9451000C94510011241FBECFEFD8E022
S1130070DEBFCDBF11E0A0E0B1E0ECEFF2E002C0E2
S113008005900D92A031B107D9F721E0A0E1B1E0CC
S113009001C01D92A131B207E1F70E94A1000C94A6
S11300A07C010C940000E82FF0E0E050FF4F8081C9
S11300B088B986FF02C0589A0895589808959BB14C
S11300C09170813021F048F0823019F004C080E44E
S11300D005C080E203C080E101C080E8992319F0E3
S11300E0982B9BB908958BB9089589B1869583702F
S11300F0833021F18FE39CE90197F1F700C0000000
S113010089B1869583708330B1F0813059F4809140
S11301101001811104C081E08093100107C0109286
S1130120100104C0823011F48093100189B18695C6
S113013083708330D9F78091100108958091100164
S113014008958FE387B989EF8AB98FE19EE4019717
S1130150F1F700C00000C0E00AE010E0E12CF12C4F
S11301600F2EFAE0CF2ED12CF02D6894552451F89F
S1130170662463940F2EF4E68F2E912CF02D0F2E0F
S1130180F3E07F2EF02D0F2EF8EEAF2EF3E0BF2E0E
S1130190F02DD0E03AC08FE19EE40197F1F700C062
S11301A00000065F1F4F0832110579F50E947500A3
S11301B081110DC09FEFE91AF90A80E1E81687E280
S11301C0F806DCF000E010E0E12CF12C1EC08130D8
S11301D069F491E0E91AF1089AF400E010E00F2EB6
S11301E0FFE0EF2EF7E2FF2EF02D0FC0823059F41E
S11301F000E010E0E12CF12C08C000E010E005C0A4
S113020000E010E002C000E010E08C2F0E945F00CC
S1130210C130A1F028F0C23019F1C33099F1BBCF3D
S1130220C701B6010E9454010E9453008FE39CE968
S11302300197F1F700C00000C62DADCFC701B6018C
S11302400E945401CB01B6010E9454010E94530044
S11302508FE39CE90197F1F700C00000C52D9BCF07
S1130260C701B4010E945401CB01B6010E9454019C
S11302700E9453008FE39CE90197F1F700C000004E
S1130280C72D89CFC701B5010E945401CB01B60126
S11302900E9454010E9453008FE39CE90197F1F7F7
S11302A000C00000CD2F77CF97FB072E16F40094E3
S11302B007D077FD09D00E94680107FC05D03EF401
S11302C0909581959F4F0895709561957F4F0895FE
S11302D0AA1BBB1B51E107C0AA1FBB1FA617B70768
S11302E010F0A61BB70B881F991F5A95A9F7809584
S10F02F09095BC01CD010895F894FFCF57
S11302FC3F065B4F666D7D077F6F777C395E797146
S9030000FC
