:100000000C9434000C9449000C9449000C94490061
:100010000C9449000C9449000C9449000C9449003C
:100020000C9449000C9449000C9449000C9449002C
:100030000C9449000C9449000C9449000C9449001C
:100040000C9449000C9449000C9449000C9449000C
:100050000C9449000C9449000C9449000C944900FC
:100060000C9449000C94490011241FBECFEFD8E036
:10007000DEBFCDBF11E0A0E0B1E0EAE3F1E002C0F5
:1000800005900D92A031B107D9F70E9450000C9451
:100090009B000C9400008FEF87B981E08AB9089526
:1000A000CF93DF93CDB7DEB760970FB6F894DEBF7E
:1000B0000FBECDBF80E1E0E0F1E0DE0111960190DE
:1000C0000D928A95E1F70E944B0020E090E089B103
:1000D00082704A990AC020953FEF49E658E13150B5
:1000E00040405040E1F700C00000211104C09F30A3
:1000F00031F09F5F07C0992321F0915003C090E039
:1001000001C09FE0811101C090E0E1E0F0E0EC0F60
:10011000FD1FE90FF11D808188B986FB882780F9D2
:100120008BB98FEF39E648E1815030404040E1F72C
:0A01300000C00000CCCFF894FFCF10
:10013A003F065B4F666D7D077F6F777C395E79710D
:00000001FF
