S00D00006877375F362E737265636C
S11300000C9434000C9449000C9449000C9449005D
S11300100C9449000C9449000C9449000C94490038
S11300200C9449000C9449000C9449000C94490028
S11300300C9449000C9449000C9449000C94490018
S11300400C9449000C9449000C9449000C94490008
S11300500C9449000C9449000C9449000C944900F8
S11300600C9449000C94490011241FBECFEFD8E032
S1130070DEBFCDBF11E0A0E0B1E0EEE4F1E002C0EC
S113008005900D92A031B107D9F70E948D000C9410
S1130090A5000C940000E82FF0E0E050FF4F8081B1
S11300A088B986FF02C0589A08955898089589B16E
S11300B0869583708330D1F08FE19EE40197F1F748
S11300C000C0000089B186958370833089F0813047
S11300D021F0823021F082E003C081E001C080E0A1
S11300E099B1969593709330D9F7089582E0089565
S11300F082E00895CF93C0E02FEF89E698E1215084
S113010080409040E1F700C000008C2F0E944B001B
S1130110CF5FCF3089F7CF9108958FE387B989EF07
S11301208AB980E00E944B00C0E00E945700811110
S113013003C00E947A0005C0813019F4C15009F44B
S1110140CFE08C2F0E944B00F0CFF894FFCF3D
S113014E3F065B4F666D7D077F6F777C395E7971F5
S9030000FC
